:100000000C9489000C94F6110C94CF110C94B1004F
:100010000C941D120C94B1000C9481130C94D11209
:100020000C94B1000C9460140C94B1000C948511E4
:100030000C94B1000C949F120C9479120C94B100A2
:100040000C94B1000C94B1000C94B1000C94B1006C
:100050000C94B1004E414E494E495459494E46CD3B
:10006000CCCC3D0AD7233C17B7D13877CC2B32956F
:1000700095E6241FB14F0A000020410000C842004D
:10008000401C4620BCBE4CCA1B0E5AAEC59D740017
:10009000003A0037003400310000003900360033E8
:1000A0000030000000000200000000000000000519
:1000B0000400070000000000000000000000000035
:1000C0000000000102040810204080010204081012
:1000D0002040800102040810204080010204081022
:1000E00020408000003B0038003500320002020250
:1000F00002020202020404040404040404030303CD
:10010000030303030301010101010101010277144B
:10011000901E11241FBECFE5D8E0DEBFCDBF11E099
:10012000A0E6B0E0E2EFFAE402C005900D92AA3A30
:10013000B107D9F723E0AAEAB1E001C01D92AF32BE
:10014000B207E1F710E0C8E8D0E004C02197FE0153
:100150000E945D23C738D107C9F70E94FC140C9494
:100160006C250C940000843059F028F4813099F00B
:10017000823089F00895853039F0873041F0089554
:100180008FB58F778FBD08958FB58F7DFBCF85B5E8
:100190008F7D85BD089583B78F7D83BF0895CF93ED
:1001A000DF93282F30E0F901ED55FF4F8491F901DD
:1001B000ED53FF4FD491F901E351FF4FC491CC238C
:1001C000A1F081110E94B300EC2FF0E0EE0FFF1FB1
:1001D000E756FF4FA591B491EC91ED2381E090E0BB
:1001E00009F480E0DF91CF91089580E090E0FACFAC
:1001F0001F93CF93DF93282F30E0F901ED55FF4F88
:100200008491F901ED53FF4FD491F901E351FF4F70
:10021000C491CC23A9F0162F81110E94B300EC2FBA
:10022000F0E0EE0FFF1FED51FF4FA591B4918FB796
:10023000F894EC91111108C0D095DE23DC938FBFA8
:10024000DF91CF911F910895DE2BF8CFCF93DF93ED
:1002500090E0FC01ED53FF4F249183519F4FFC012F
:1002600084918823D1F090E0880F991FFC01E15719
:10027000FF4FA591B491FC01ED51FF4FC591D49171
:1002800061110EC09FB7F8948C91E22FE0958E23F8
:100290008C932881E223E8839FBFDF91CF9108955B
:1002A0008FB7F894EC91E22BEC938FBFF6CF8F923F
:1002B0009F92AF92BF92CF92DF92EF92FF92CF9335
:1002C000209181002C3161F02F3F81F0CF91FF9080
:1002D000EF90DF90CF90BF90AF909F908F90089558
:1002E000EDE0F1E0C491C7FDF1CF3FC02CE12093D8
:1002F0008100EDE0F1E0C491CF3F41F3C130F1F076
:10030000C23089F715BC15BC25B5286025BD25B5BB
:10031000216025BDE9E0F1E0E491F0E0EE0FFF1F80
:10032000ED51FF4F2591349130934E0220934D02B1
:10033000EFEDF0E0E491E0934C0217C01FBC1EBC4F
:100340002EB528602EBD2EB521602EBDE9E0F1E06E
:10035000E491F0E0EE0FFF1FED51FF4F2591349136
:10036000EFEDF0E0E491E0934F026C0161E08CE18D
:100370000E942601F12CE12C8C2F8D7F09F0A3C067
:1003800060E072E18AE790E0A70196010E94812176
:1003900049015A01DA01C9010197A109B1098F3F49
:1003A0009105A105B10509F0DCF49C0181E095B54A
:1003B000987F892B85BDC13009F4ACC0C23009F0EB
:1003C00085CF23BD8FEF9FEFDC0180935002909388
:1003D0005102A0935202B093530289B78068A9C01A
:1003E00060E472E48FE090E0A70196010E94812111
:1003F0002150310941095109C23009F0B0C02F3FE5
:1004000031054105510509F00CF4AFC060E970ED0C
:1004100083E090E0A70196010E94812121503109DB
:10042000410951092F3F31054105510509F00CF4EF
:1004300094C068E478EE81E090E0A70196010E9404
:10044000812121503109410951092F3F31054105D1
:10045000510509F014F484E0AACF64E274EF80E05F
:1004600090E0A70196010E948121215031094109A4
:1004700051092F3F31054105510509F008F497C096
:1004800062E17AE780E090E0A70196010E94812175
:10049000215031094109510986E02F3F31054105BD
:1004A000510509F008F483CF9AE0B594A794979486
:1004B00087949A95D1F7A5019401215031094109FA
:1004C000510987E074CF60E072E18AE790E0A7010C
:1004D00096010E948121215031094109510991E081
:1004E0002115310581E0480751056CF068E478EE8C
:1004F00081E090E0A70196010E94812121503109FD
:100500004109510993E0C13009F055CF8EB5887F7C
:10051000892B8EBD3BBD2ABD8FEF9FEFDC01809301
:10052000540290935502A0935602B093570289B794
:10053000806189BFCBCE68E478EE81E090E0A701CE
:1005400096010E94812121503109410951092F3F13
:1005500031054105510509F054F483E028CF2F3FC0
:1005600031054105510509F034F782E020CF62E101
:100570007AE780E090E0A70196010E948121215056
:100580003109410951092F3F31054105510509F054
:1005900008F461CF8AE0B594A794979487948A95DC
:1005A000D1F7A5019401215031094109510985E094
:1005B000FECE880F991F880F991F05970197F1F7B5
:1005C0000895EF92FF921F93CF93DF9310E0C7E05F
:1005D000D0E0EE24E394F12C60E0809126030E94A9
:1005E000F8008AE090E00E94D902809127030E94DF
:1005F000CF00892B39F0C7010C2E01C0880F0A9457
:10060000EAF7182B61E0809126030E94F8008AE047
:1006100090E00E94D9022197F8F6812FDF91CF91C7
:100620001F91FF90EF900895CF93DF9360E080914A
:1006300028030E94F8008AE090E00E94D9020E94FC
:10064000E102C82FD0E0DC2FCC270E94E102C82BAA
:1006500061E0809128030E94F800C2FD13C083E08E
:10066000D695C7958A95E1F7BE0190E080E00E949B
:100670004A2020E030E040E85EE30E94AB20DF91BA
:10068000CF91089560E070E080EC9FE7F8CF3FB72E
:10069000F8948091480290914902A0914A02B09149
:1006A0004B0222B708B600FE05C02F3F19F0019695
:1006B000A11DB11D3FBFBA2FA92F982F8827BC01BC
:1006C000CD01620F711D811D911D42E0660F771FE4
:1006D000881F991F4A95D1F708958F929F92AF92E4
:1006E000BF92CF92DF92EF92FF924B015C010E948A
:1006F00047036B017C010E9447036C197D098E0939
:100700009F09683E734081059105A8F321E0821A94
:100710009108A108B10888EEC80E83E0D81EE11C3C
:10072000F11C81149104A104B10429F7FF90EF900A
:10073000DF90CF90BF90AF909F908F9008952FB78C
:10074000F894609144027091450280914602909124
:1007500047022FBF0895089508959091810089134D
:100760000BC0EDE0F1E0E4919FEF90938100E13068
:1007700041F028F0E23049F060E00C94F80019BE36
:10078000FBCF99B79F7E99BFF7CF99B79F7799BF56
:1007900090E495BD95B5987F946095BD13BCECCF62
:1007A000AF92BF92CF92DF92EF92FF920F931F937F
:1007B000CF93DF936C017B018B01040F151FEB01BD
:1007C0005E01AE18BF08C017D10759F06991D60174
:1007D000ED91FC910190F081E02DC6010995892BE6
:1007E00079F7C501DF91CF911F910F91FF90EF90A5
:1007F000DF90CF90BF90AF900895FC01538D448D52
:10080000252F30E0842F90E0821B930B541710F0BB
:10081000CF96089501970895FC01918D828D9817C8
:1008200061F0A28DAE0FBF2FB11D5D968C91928DA0
:100830009F5F9F73928F90E008958FEF9FEF0895D1
:100840000F931F930E949F03609360027093610255
:10085000809362029093630288E592E00E940C0408
:1008600097FF1DC00E949F030091600210916102DA
:100870002091620230916302601B710B820B930B1B
:1008800000915C0210915D0220915E0230915F0246
:100890006017710782079307F8F28FEF9FEF1F91A0
:1008A0000F910895FC01918D828D981731F0828D02
:1008B000E80FF11D858D90E008958FEF9FEF08956B
:1008C000FC01918D228D892F90E0805C9F4F821BCF
:1008D00091098F739927089588E592E00E9460043A
:1008E00021E0892B09F420E0822F089580E090E038
:1008F000892B29F00E946C0481110C94000008954A
:10090000FC01A48DA80FB92FB11DA35ABF4F2C9184
:10091000848D90E001968F739927848FA689B7897B
:100920002C93A089B1898C9182748C93938D848D42
:10093000981306C00288F389E02D80818F7D808323
:100940000895EF92FF920F931F93CF93DF93EC01E3
:1009500081E0888F9B8D8C8D981319C0E889F98967
:10096000808185FF14C09FB7F894EE89FF8960836A
:10097000E889F9898081827480839FBF81E090E05B
:10098000DF91CF911F910F91FF90EF900895F62E78
:100990000B8D10E00F5F1F4F0F731127E02E8C8D12
:1009A0008E110CC00FB607FCFACFE889F989808157
:1009B00085FFF5CFCE010E948004F1CFEB8DEC0FC7
:1009C000FD2FF11DE35AFF4FF0829FB7F8940B8F74
:1009D000EA89FB8980818062CFCFCF93DF93EC01DE
:1009E000888D8823B9F0AA89BB89E889F9898C9117
:1009F00085FD03C0808186FD0DC00FB607FCF7CFD3
:100A00008C9185FFF2CF808185FFEDCFCE010E94D2
:100A10008004E9CFDF91CF9108958F929F92AF929A
:100A2000BF92CF92DF92EF92FF920F931F93CF93DB
:100A3000DF9380911F02882309F467C010923F0260
:100A4000C0912002D09121028090F5019090F60192
:100A5000A090F701B090F801C0907700D090780096
:100A6000E0907900F0907A001C161D062CF50E948B
:100A70009F0300911B0210911C0220911D023091D6
:100A80001E02AB01BC01401B510B620B730BCE016C
:100A9000DD0FAA0BBB0B481759076A077B0760F0ED
:100AA0000E949F0360931B0270931C0280931D029F
:100AB00090931E0210921F020E949F0368197909E9
:100AC0008A099B096C157D058E059F0508F10E941A
:100AD0009F036093F5017093F6018093F701909363
:100AE000F8016091F40181E068276093F401DF91DF
:100AF000CF911F910F91FF90EF90DF90CF90BF901B
:100B0000AF909F908F900C94F80081E080933F020B
:100B1000DF91CF911F910F91FF90EF90DF90CF90D9
:100B2000BF90AF909F908F900895882341F061E02F
:100B30008FE00E94F80060E08EE10C94F80060E025
:100B40008FE00E94F8008DE10E94CF00892B99F37D
:100B500008958F929F92AF92BF92CF92DF92EF92C1
:100B6000FF92C0904102D0904202F12CE12C2091E2
:100B70007B0030917C0050E040E02C193D094E098B
:100B80005F09B0E0A0E0BC01CD01645671098109A4
:100B900091090E943A2324EB30E040E050E00E94AB
:100BA0008121C20ED31EE41EF51E2091E101309179
:100BB000E2012C153D0509F479C0960140E2C41606
:100BC00042E0D406DCF580912403E8E88E2E912CD7
:100BD000881A910887FD9394880C991C880C991C9D
:100BE000092C000CAA08BB088091250328E532E0F7
:100BF000281B310987FD3395220F331F220F331F26
:100C0000032E000C440B550B281939094A095B09BE
:100C1000D601A53BB10514F0A4EBB0E0B7FF02C0CC
:100C2000B0E0A0E00E94AB2124EB30E040E050E0D7
:100C30000E948121280D391D4A1D5B1DE09123036F
:100C4000EC3080F54091240388E890E0841B910902
:100C500047FD9395880F991F880F991F281739070B
:100C600084F04091250388E592E0841B910947FDBB
:100C70009395880F991F880F991F281739070CF42F
:100C8000C9010297880F991F4FB7F8942E2F30E0B3
:100C9000F901EE0FFF1FE20FF31FEB50FD4F9283A0
:100CA00081834FBFD092E201C092E101FF90EF90AB
:100CB000DF90CF90BF90AF909F908F900895FC01F0
:100CC00001900020E9F73197AF01481B590BBC0197
:100CD00088E592E00C94D0038F929F92AF92BF92DE
:100CE0000F931F93CF93DF93CDB7DEB7A1970FB6C6
:100CF000F894DEBF0FBECDBF19A2423008F44AE01F
:100D00008E010F5D1F4F842E912CB12CA12CA501BB
:100D100094010E94EA21E62FB901CA01EA30F4F4F5
:100D2000E05DD801EE938D01232B242B252B79F741
:100D300090E080E0109719F0CD010E945F06A19627
:100D40000FB6F894DEBF0FBECDBFDF91CF911F91DC
:100D50000F91BF90AF909F908F900895E95CE1CF85
:100D6000CF93DF930E945F06EC018CE990E00E9434
:100D70005F068C0F9D1FDF91CF910895CF92DF9278
:100D8000EF92FF920F931F93CF93DF9380913902DD
:100D9000882309F432C3809138028823C9F18091F5
:100DA00037028823A9F10E949F030091CA01109184
:100DB000CB012091CC013091CD01AB01BC01401B96
:100DC000510B620B730B80917E0090917F00092E76
:100DD000000CAA0BBB0B481759076A077B07C0F02A
:100DE000C091C9016C2F80E00E94F8006C2F85E053
:100DF0000E94F80081E0C827C093C9010E949F03A8
:100E00006093CA017093CB018093CC019093CD0184
:100E100080913C028823E9F180913D028823C9F149
:100E20000E949F030091CA011091CB012091CC0137
:100E30003091CD01AB01BC01401B510B620B730B18
:100E400080917E0090917F00092E000CAA0BBB0BB5
:100E5000481759076A077B07E0F0C091C9016C2F5A
:100E600087E00E94F8006C2F84E00E94F80081E087
:100E7000C827C093C9018FE990E00E94B0060E9484
:100E80009F036093CA017093CB018093CC01909330
:100E9000CD0180913A02882309F441C00E949F034A
:100EA0000091CA011091CB012091CC013091CD016C
:100EB000AB01BC01401B510B620B730B80917E0098
:100EC00090917F00092E000CAA0BBB0B4817590705
:100ED0006A077B0720F1C091C90181E0C8276C2F08
:100EE00087E00E94F8006C2F84E00E94F8006C2FCD
:100EF00080E00E94F8006C2F85E00E94F8006C2FC3
:100F000087E00E94F800C093C9010E949F0360938C
:100F1000CA017093CB018093CC019093CD01809155
:100F20003B02882381F080916100853018F081E0D8
:100F30008093610080916100823009F4BDC060F44B
:100F4000813009F455C0DF91CF911F910F91FF902F
:100F5000EF90DF90CF900895833009F45AC1843028
:100F600091F7D091C201D63008F0EAC180916000BB
:100F7000882309F4E5C10E949F030091C5011091E7
:100F8000C6012091C7013091C801601B710B820B13
:100F9000930B6233710581059105A8F20E949F03AE
:100FA0006093C5017093C6018093C7019093C801F7
:100FB000C091C10181E0C827C093C1016C2F80E0BE
:100FC0000E94F8006C2F84E00E94F8006C2F85E0EE
:100FD0000E94F8006C2F87E00E94F800CC2309F4EF
:100FE000B2CFDF5FD093C201D53008F0ACC0ABCF39
:100FF0000E949F030091C5011091C6012091C70175
:101000003091C801601B710B820B930B6C327140E5
:101010008105910508F497CF0E949F036093C50155
:101020007093C6018093C7019093C8018091C40159
:101030008F5F8093C401823089F198F4813009F088
:1010400082CF61E080E00E94F80060E085E0DF91FF
:10105000CF911F910F91FF90EF90DF90CF900C9464
:10106000F800833011F1843009F06DCF60E087E043
:101070000E94F80061E085E00E94F8001092C4012F
:101080008091C3018F5F8093C301853008F45BCFEB
:1010900082E0809361001092C30155CF60E080E050
:1010A0000E94F80061E084E0D2CF60E084E00E941A
:1010B000F80061E087E0CBCFC091C201C63008F0F4
:1010C00048C080916000882309F443C00E949F03B8
:1010D0000091C5011091C6012091C7013091C8014E
:1010E000601B710B820B930B6233710581059105B7
:1010F00008F429CF60E085E00E94F80060E087E016
:101100000E94F8000E949F036093C5017093C6017E
:101110008093C7019093C801D091C10181E0D82785
:10112000D093C1016D2F80E00E94F8006D2F84E004
:101130000E94F800DD2309F406CFCF5FC093C201FF
:10114000C53008F400CF1092600081E08093C001A8
:10115000FACE1091BF01163008F0F5CE8091C00193
:10116000882309F4F0CE0E949F03C090C501D0905F
:10117000C601E090C701F090C8016C197D098E0985
:101180009F09623371058105910508F4DCCE60E0AA
:1011900080E00E94F80060E084E00E94F8000E9475
:1011A0009F036093C5017093C6018093C70190931C
:1011B000C801D091BE0101E0D027D093BE016D2FB0
:1011C00085E00E94F8006D2F87E00E94F800DD2383
:1011D00009F4B9CE1F5F1093BF01C53008F4B3CE38
:1011E000153008F4B0CE1092C2011092BF010093E6
:1011F00060001092C0018091C3018F5F853018F4A8
:101200008093C301A0CE1092C30183E0809361005C
:101210009ACEC091C201C630B8F580916000882393
:1012200099F10E949F030091C5011091C601209180
:10123000C7013091C801601B710B820B930B6233A5
:1012400071058105910508F47ECE60E084E00E947E
:10125000F80060E087E00E94F8000E949F0360931E
:10126000C5017093C6018093C7019093C801D091C6
:10127000C10181E0D827D093C1016D2F80E00E9489
:10128000F8006D2F85E054CF1091BF01163008F0A3
:101290005ACE8091C001882309F455CE0E949F0345
:1012A000C090C501D090C601E090C701F090C80180
:1012B0006C197D098E099F096233710581059105BD
:1012C00008F441CE60E080E00E94F80060E085E034
:1012D0000E94F8000E949F036093C5017093C601AD
:1012E0008093C7019093C801D091BE0101E0D0273F
:1012F000D093BE016D2F84E00E94F8006D2F87E02F
:101300000E94F800DD2309F41ECE1F5F1093BF0179
:10131000C53008F418CE153008F415CE1092C2016D
:101320001092BF01009360001092C0018091C30130
:101330008F5F853008F464CF1092C30184E066CFDC
:10134000C091BF01C63008F0FECD8091C001882356
:1013500009F4F9CD0E949F030091C5011091C601C7
:101360002091C7013091C801601B710B820B930B58
:10137000623371058105910508F4E5CD60E080E0F8
:101380000E94F80060E085E00E94F80060E084E0E0
:101390000E94F80060E087E00E94F8000E949F032E
:1013A0006093C5017093C6018093C7019093C801F3
:1013B0008091BE0191E089278093BE01882309F4C2
:1013C000C2CDCF5FC093BF01D53008F4BCCDC530CE
:1013D00008F4B9CD1092C2011092BF019093600041
:1013E0001092C0018091C3018F5F853008F408CF4F
:1013F0001092C30190936100A6CD60E080E00E944E
:10140000F80060E084E00E94F80060E085E00E945F
:10141000F80060E04FCECF92DF92EF92FF920F93F1
:101420001F93CF93DF9380911002882309F4D5C1D5
:10143000809113028111CBC1D1E0D0933902D093B6
:101440003A02C0916E00C23009F425C108F099C07B
:10145000C13009F4CEC08091EF018A3060F0109263
:10146000EF01CF5FC0936E0081E080936D0010921A
:10147000EA011092E90180916E00853018F081E058
:1014800080936E000E949F030091E5011091E60198
:101490002091E7013091E801601B710B820B930BE7
:1014A00060327E448105910588F01092E50110922A
:1014B000E6011092E7011092E801109210021092DA
:1014C000390210923A028CE10E94AD038091E4014E
:1014D000882309F49EC111E01093390210933A0257
:1014E0000E944703C090F001D090F101E090F2011A
:1014F000F090F3016C197D098E099F09643F7140DA
:101500008105910528F10091E3010E944703609352
:10151000F0017093F1018093F2019093F301C09177
:101520006500D091660080916D00882309F462C146
:101530002196D0936600C0936500CE010E945701AA
:10154000C115D34028F00F5F0093E30110926D00A6
:101550008091E301823058F01092390210923A02E1
:101560001092E3018CE10E94AD031092E401DF913F
:10157000CF911F910F91FF90EF90DF90CF900C943F
:10158000BE06C33009F4E0C0C43009F064CF0E9445
:101590009F030091EB011091EC012091ED0130913E
:1015A000EE01601B710B820B930B6039714081055A
:1015B0009105D0F00091690010916A00D091EF017F
:1015C0000E949F036093EB017093EC018093ED0107
:1015D0009093EE010115124008F053C080E993E0AA
:1015E00090936A00809369008091690090916A00ED
:1015F00039C00E9447030091F0011091F101209140
:10160000F2013091F301601B710B820B930B6E356D
:1016100071408105910510F100916B0010916C00F3
:10162000D091EF010E9447036093F0017093F101A4
:101630008093F2019093F30180916D008823A9F0CB
:101640000F5F1F4F10936C0000936B000115134048
:1016500028F0DF5FD093EF0110926D0080916B0056
:1016600090916C000E945701F6CE01501109109321
:101670006C0000936B000115124080F7C0936D0061
:10168000EDCF8FEF91E090936A0080936900DF5F68
:10169000D093EF01A9CF0E9447030091F001109170
:1016A000F1012091F2013091F301601B710B820B6B
:1016B000930B6E3571408105910508F4CCCEF09006
:1016C000EF010E9447036093F0017093F101809352
:1016D000F2019093F30180916D008823F1F0009165
:1016E000E9011091EA010F5F1F4F1093EA01009387
:1016F000E9018CE10E94AD03043611050CF4ABCE78
:1017000080E993E0909368008093670010926D00E9
:101710001092EA011092E9019ECE009167001091AB
:101720006800015011091093680000936700C80118
:101730000E9457010115124008F08DCED0936D0024
:10174000F394F092EF0187CE0E9447030091F001DD
:101750001091F1012091F2013091F301601B710BA6
:10176000820B930B683B7B408105910508F473CE97
:101770000E9447036093F0017093F1018093F2019E
:101780009093F3018091E9019091EA010196909381
:10179000EA018093E9018436910574F080916D002F
:1017A0001092EA011092E9019091EF019F5F9093EE
:1017B000EF01D827D0936D0080916D00882321F030
:1017C0008CE10E94AD0347CE8AEA90E04BCF81E0E6
:1017D0008093390280933A0255CE1092E50110921F
:1017E000E6011092E7011092E8011092390210927E
:1017F0003A026CCE2197D0936600C09365008CE1CD
:101800000E94AD03C436D24008F0A2CE10936D0002
:101810009FCEDF91CF911F910F91FF90EF90DF90BE
:10182000CF900895809112028823C9F081E08093BF
:10183000E40160E08BE00E94260187E49CE0909345
:1018400074008093730085B7837F846085BF8BB7F6
:1018500080688BBF80E00E9495050E940B0A8091F2
:101860001102882389F01092E40181E08093100234
:101870000E949F036093E5017093E6018093E70166
:101880009093E8010C940B0A08950C945F0687EA84
:1018900090E00E94450C81E0809311020C94120CA0
:1018A000CF92DF92EF92FF921F93CF93DF938AE064
:1018B0000E94CF00019709F01CC28091E0018823AB
:1018C00009F4CEC080912202813011F50E949F035D
:1018D000C090DC01D090DD01E090DE01F090DF01EE
:1018E0006C197D098E099F096D3271408105910542
:1018F00078F061E089E10E94F80061E086E0DF9124
:10190000CF911F91FF90EF90DF90CF900C94F80053
:1019100080912202823009F44BC0809122028330F0
:1019200009F0A6C00E949F03C090DC01D090DD01A9
:10193000E090DE01F090DF016C197D098E099F09AE
:101940006D3271408105910508F492C085EB90E0FD
:101950000E94450C0E949F03C090D301D090D401F7
:10196000E090D501F090D6016C197D098E099F0990
:10197000653671058105910508F472C00E949F03C8
:101980006093D3017093D4018093D5019093D601D5
:101990008091630060E0882309F471C186E00E94B1
:1019A000F80061E089E10E94F8001092630058C0DD
:1019B0000E949F03C090DC01D090DD01E090DE0129
:1019C000F090DF016C197D098E099F096D3271401D
:1019D0008105910508F4A1CF8BEA90E00E94450CA7
:1019E000C091D701C63008F0FFC080916400882301
:1019F00009F4FAC00E949F03C090D301D090D40193
:101A0000E090D501F090D6016C197D098E099F09EF
:101A1000623371058105910518F160E089E10E944A
:101A2000F8000E949F036093D3017093D4018093C8
:101A3000D5019093D601D091D20111E0D127D09356
:101A4000D2016D2F86E00E94F800DD2349F0CF5FC0
:101A5000C093D701C53020F0109264001093D101DB
:101A6000DF91CF911F91FF90EF90DF90CF9008957D
:101A7000809122028430A1F70E949F03C090DC0174
:101A8000D090DD01E090DE01F090DF016C197D095E
:101A90008E099F096D3271408105910508F38FEB26
:101AA00090E00E94450C0E949F03C090D301D0900B
:101AB000D401E090D501F090D6016C197D098E0912
:101AC0009F09643671058105910548F08091CE012A
:101AD000811105C080916200813009F4DBC00E9451
:101AE0009F036C197D098E099F0962337105810579
:101AF000910508F0E5C00E949F036C197D098E09CD
:101B00009F09643671058105910508F0F8C00E94AF
:101B10009F036C197D098E099F0962337105810548
:101B2000910508F0FAC00E949F036C197D098E0987
:101B30009F09683C71058105910508F0FAC00E9473
:101B40009F036C197D098E099F09683C7105810509
:101B5000910508F0F9C00E949F036C197D098E0958
:101B60009F096A3F71058105910508F0F9C00E943F
:101B70009F036C197D098E099F096A3F71058105D4
:101B8000910508F0F8C00E949F036C197D098E0929
:101B90009F096A3F71058105910508F0F8C00E9410
:101BA0009F036C197D098E099F096A3F71058105A4
:101BB000910508F0F7C00E949F036C197D098E09FA
:101BC0009F096A3F71058105910508F449CF80910D
:101BD000CE01811145CF809162008B3009F040CF5A
:101BE00081E0809362003CCFD091D001D63008F0E4
:101BF00037CF8091D101882309F432CF0E949F030F
:101C0000C090D301D090D401E090D501F090D601DE
:101C10006C197D098E099F09623371058105910553
:101C200008F41ECF60E086E00E94F8000E949F0347
:101C30006093D3017093D4018093D5019093D60122
:101C4000F090CF0111E0F126F092CF016F2D89E1E4
:101C50000E94F800FF2009F403CFDF5FD093D0018A
:101C6000C53008F4FDCED53008F4FACE1092D70175
:101C70001092D001109364001092D101F1CE89E14D
:101C80000E94F80061E086E00E94F80081E0809305
:101C90006300E6CE92E0909362008093CE010E94B2
:101CA0009F036093D3017093D4018093D5019093E7
:101CB000D60161E086E00E94F80061E089E11FCE74
:101CC0008091CE01882309F416CF80916200823082
:101CD00009F011CF83E0809362001092CE010E9440
:101CE0009F036093D3017093D4018093D5019093A7
:101CF000D60160E086E00E94F80060E0DFCF8091CE
:101D0000CE01811104CF80916200833009F0FFCEB3
:101D100084E08093620081E0C0CF8091CE0188236F
:101D200009F401CF80916200843009F0FCCE85E097
:101D3000D2CF8091CE01811102CF80916200853097
:101D400009F0FDCE86E0E5CF8091CE01882309F42D
:101D500002CF80916200863009F0FDCE87E0BBCFD4
:101D60008091CE01811103CF80916200873009F00C
:101D7000FECE88E0CECF8091CE01882309F403CF38
:101D800080916200883009F0FECE89E0A4CF809176
:101D9000CE01811104CF80916200893009F0FFCE1D
:101DA0008AE0B7CF8091CE01882309F404CF8091D7
:101DB00062008A3009F0FFCE8BE08DCF4F925F92A8
:101DC0006F927F928F929F92AF92BF92CF92DF924B
:101DD000EF92FF926B017C01AC019B010E943523C5
:101DE0008823C1F089EC90E00E945F067C018CE9B9
:101DF00090E00E945F068E0D9F1DFF90EF90DF9098
:101E0000CF90BF90AF909F908F907F906F905F909A
:101E10004F90089546015701E894B7F82FEF3FEF30
:101E20004FE75FE7C501B4010E94352381110DC062
:101E30002FEF3FEF4FE75FE7C501B4010E94452058
:101E400018161CF48DEC90E0CFCF2FEF3FEF4FE74B
:101E50005FE4C701B6010E94302318161CF481ED1F
:101E600090E0C2CF2FEF3FEF4FE75FECC701B60125
:101E70000E94452087FDF3CF20E030E0A901C70193
:101E8000B6010E944520B12CA12C87FF0AC06DE24B
:101E900088E592E00E94A1045C01F7FAF094F7F85B
:101EA000F0942AE037ED43EA5BE3C701B6010E94F4
:101EB0001C222B013C010E9401236B017C010E942A
:101EC0004A209B01AC01C301B2010E941B222B01DD
:101ED0003C014AE0C701B6010E946C067C01EA0C95
:101EE000FB1C6EE288E592E00E94A104E80EF91E58
:101EF00020E030E040E251E4C301B2010E94AB2097
:101F00002B013C010E9401234B01B12CA12C4AE082
:101F1000C501B4010E946C06E80EF91EC501B401AA
:101F20000E944A209B01AC01C301B2010E941B2206
:101F300020E030E040E251E40E94AB200E94012307
:101F400090E080E04AE00E946C06E80EF91E4FCF58
:101F50000F931F938AE00E94CF00019709F05EC0A3
:101F60000E949F030091DC011091DD012091DE01B0
:101F70003091DF01601B710B820B930B653F714049
:101F80008105910510F0109222020E949F0300919A
:101F9000D8011091D9012091DA013091DB01601B49
:101FA000710B820B930B693C71058105910510F152
:101FB0000E949F036093D8017093D9018093DA0146
:101FC0009093DB0191E09093E001809122028F5F7A
:101FD0008093220280912202853010F09093220299
:101FE0000E949F036093DC017093DD018093DE010A
:101FF0009093DF0185ED90E00E94450C60912202F4
:1020000070E090E080E04AE00E946C068CE990E08D
:102010000E945F061F910F910C94500C8AE00E9461
:10202000CF00892B11F41092E0011F910F910895B8
:1020300020911E0330911F03232B39F421E0FC0172
:102040008081882361F020E00AC0BC0180911A03DE
:1020500090911B030E944E2521E0892BA1F7822F2E
:102060000895FC014481558180911E0390911F03C6
:102070008417950780F080911A0390911B030097B5
:1020800051F0608171816115710529F00E945E2512
:1020900021E0892B09F020E0822F0895CF93DF9370
:1020A000EC0188819981009711F00E94FF23198229
:1020B00018821D821C821B821A82DF91CF910895A3
:1020C000FC0180819181009711F00C94FF23089509
:1020D000FC0180819181009711F00C94981E60E0C2
:1020E00070E0CB0108950F931F93CF93DF93EC0122
:1020F00088819981009759F02A813B8126173707FB
:1021000030F081E0DF91CF911F910F9108958B0105
:102110006F5F7F4F0E948824009759F099838883CE
:102120001B830A832C813D81232B59F7FC011082EC
:10213000E8CF80E0E7CFEF92FF920F931F93CF930A
:10214000DF938C017B01EB0109900020E9F72197D7
:10215000C61BD70BBE010E947310811109C0C801B4
:10216000DF91CF911F910F91FF90EF900C944E1043
:10217000F801D583C483B70180819181DF91CF912C
:102180001F910F91FF90EF900C945725EF92FF92C3
:102190000F931F93CF93DF93EC017B011982188279
:1021A0001B821A821D821C82FB0101900020E9F72C
:1021B00031978F01061B170BB8010E947310811114
:1021C00009C0CE01DF91CF911F910F91FF90EF9049
:1021D0000C944E101D830C83B70188819981DF9187
:1021E000CF911F910F91FF90EF900C945725CF92B4
:1021F000DF92EF92FF920F931F93CF93DF937C01B7
:1022000000911E0310911F0384E0C82ED12C0430CE
:10221000110518F4680104E010E06EE970E0C701F0
:102220000E94C610C0911E03D0911F03CC16DD067C
:10223000F8F40C171D0708F4E801E0911A03F09177
:102240001B03EC0FFD1F1081108260911A03709127
:102250001B036C0D7D1DC7016115710599F00E946E
:102260009B1080911A0390911B03C80FD91F1883EC
:10227000C701DF91CF911F910F91FF90EF90DF90F9
:10228000CF9008950E944E10ECCFFF920F931F93B2
:10229000CF93DF93EC01F62E08811981C8010E94CB
:1022A0006C21F81621F06F2DC8010E947421CE0117
:1022B000DF91CF911F910F91FF900895EF92FF92C0
:1022C0000F931F93CF93DF9300D0CDB7DEB78C0170
:1022D0007B019A838983FB016081CE0101960E9474
:1022E00045110F5F1F4F1A830983F7016181CE01EA
:1022F00001960E944511C7010F900F90DF91CF9179
:102300001F910F91FF90EF9008951F920F920FB6BB
:102310000F9211242F933F938F939F93AF93BF936B
:102320008091440290914502A0914602B0914702EB
:102330003091430223E0230F2D3768F126E8230F65
:102340000296A11DB11D20934302809344029093F5
:102350004502A0934602B0934702809148029091B3
:102360004902A0914A02B0914B020196A11DB11DF4
:102370008093480290934902A0934A02B0934B0283
:10238000BF91AF919F918F913F912F910F900FBE71
:102390000F901F9018950196A11DB11DD4CF1F92CB
:1023A0000F920FB60F9211242F933F934F935F9389
:1023B0006F937F938F939F93AF93BF93EF93FF930D
:1023C000E0917300F09174000995FF91EF91BF9136
:1023D000AF919F918F917F916F915F914F913F91BD
:1023E0002F910F900FBE0F901F9018951F920F9274
:1023F0000FB60F9211242F933F934F935F936F93D8
:102400007F938F939F93AF93BF93EF93FF93E0914D
:102410007100F09172000995FF91EF91BF91AF911A
:102420009F918F917F916F915F914F913F912F91EC
:102430000F900FBE0F901F9018951F920F920FB61E
:102440000F9211242F933F934F935F936F937F933A
:102450008F939F93AF93BF93EF93FF93809150021D
:1024600090915102A0915202B0915302892B8A2B74
:102470008B2BD1F190914C02E0914D02F0914E02E4
:102480008081892780838091500290915102A09190
:102490005202B0915302181619061A061B069CF434
:1024A0008091500290915102A0915202B09153023A
:1024B0000197A109B1098093500290935102A09312
:1024C0005202B0935302FF91EF91BF91AF919F9150
:1024D0008F917F916F915F914F913F912F910F90CD
:1024E0000FBE0F901F901895809181000E94AD0340
:1024F000EACF1F920F920FB60F9211242F933F93A2
:102500004F935F936F937F938F939F93AF93BF93FB
:10251000EF93FF9388E592E00E948004FF91EF9192
:10252000BF91AF919F918F917F916F915F914F91EB
:102530003F912F910F900FBE0F901F9018951F92F3
:102540000F920FB60F9211242F938F939F93EF93B7
:10255000FF93E0916802F09169028081E0916E0240
:10256000F0916F0282FD1BC09081809171028F5F9C
:102570008F7320917202821741F0E0917102F0E0B6
:10258000E85AFD4F958F80937102FF91EF919F91D3
:102590008F912F910F900FBE0F901F9018958081F3
:1025A000F4CF1F920F920FB60F9211242F933F93E7
:1025B0004F935F936F937F938F939F93AF93BF934B
:1025C000CF93DF93EF93FF938091F901C0911903AB
:1025D000D0E087FF1EC01DBC1CBC8091F9018F5F3D
:1025E0008093F9018091F901082E000C990B8C174A
:1025F0009D0724F48091F9018C30A4F18CB59DB530
:10260000049680349C4908F474C08CB59DB504963A
:1026100072C08091F901082E000C990B8C179D0750
:10262000E4F6E091F9018E2FEE0F990BFC01EE0F0D
:10263000FF1FE80FF91FEB50FD4F808186FFCDCFC4
:10264000E091F9018E2FEE0F990BFC01EE0FFF1FA9
:10265000E80FF91FEB50FD4F808160E08F730E94FF
:10266000F800BBCF2CB53DB5E091F9018E2FEE0FF0
:10267000990BFC01EE0FFF1FE80FF91FEB50FD4F08
:1026800081819281820F931F9BBD8ABDE091F901E8
:102690008E2FEE0F990BFC01EE0FFF1FE80FF91FB5
:1026A000EB50FD4F808186FF11C0E091F9018E2F24
:1026B000EE0F990BFC01EE0FFF1FE80FF91FEB5017
:1026C000FD4F808161E08F730E94F800FF91EF91D0
:1026D000DF91CF91BF91AF919F918F917F916F913A
:1026E0005F914F913F912F910F900FBE0F901F90D0
:1026F000189580E49CE99BBD8ABD8FEF8093F9011A
:10270000E5CF1F920F920FB60F921124CF92DF9256
:10271000EF92FF922F933F934F935F936F937F932B
:102720008F939F93AF93BF93EF93FF93CF93DF93D9
:1027300000D000D0CDB7DEB719821A821B821C826E
:102740008091BD0181112AC086B597B5B0E0A0E0A7
:102750008093B9019093BA01A093BB01B093BC01DF
:1027600081E08093BD010F900F900F900F90DF914B
:10277000CF91FF91EF91BF91AF919F918F917F91F9
:102780006F915F914F913F912F91FF90EF90DF906C
:10279000CF900F900FBE0F901F90189586B597B5EC
:1027A000B0E0A0E08093B5019093B601A093B7018B
:1027B000B093B8018091B3019091B401892B09F4D1
:1027C0006AC08091B3019091B4014091B5015091DC
:1027D000B6016091B7017091B801C090B901D09075
:1027E000BA01E090BB01F090BC01B0E0A0E0DC01D8
:1027F000992788274C195D096E097F09840F951F59
:10280000A61FB71F8093AF019093B001A093B101B1
:10281000B093B2018091AF019091B001A091B1014C
:10282000B091B201892B8A2B8B2B71F12091AF01D2
:102830003091B0014091B1015091B20160E970ED69
:1028400083E090E00E94EA2129833A834B835C83F2
:1028500029813A814B815C81ACE3B0E00E94A021E8
:1028600060932702709328028093290290932A0292
:1028700089819A81AB81BC8180932B0290932C0239
:10288000A0932D02B0932E021092B4011092B301C6
:102890001092BD0168CF8091B5019091B601A091D1
:1028A000B701B091B8014091B9015091BA0160915E
:1028B000BB017091BC01841B950BA60BB70BA2CF7B
:1028C0001F920F920FB60F9211248F939F938091B6
:1028D000B3019091B40101969093B4018093B30138
:1028E0009F918F910F900FBE0F901F90189510928F
:1028F0005B0210925A0288EE93E0A0E0B0E0809371
:102900005C0290935D02A0935E02B0935F028EE83A
:1029100090E0909359028093580280E490E0909365
:1029200065028093640229E230E0309367022093CD
:1029300066022BE230E030936902209368022AE2BB
:1029400030E030936B0220936A0290936D02809383
:102950006C028CE290E090936F0280936E02109272
:1029600071021092720210927302109274028CE043
:102970008093260381E1809328038DE080932703D1
:1029800061E081E10E94260161E0809126030E94BE
:10299000260160E0809127030E94260161E080917A
:1029A00028030E94F800809119038C3008F591E00B
:1029B000980F909319038093230390E0FC01EE0F8E
:1029C000FF1FE80FF91FEB50FD4F88EB9BE0928350
:1029D000818383E08093220384E08093210386E057
:1029E000809320036EE970E08AE193E00C94C610B6
:1029F0008FEF80932303EDCFCF93DF93CDB7DEB777
:102A000028970FB6F894DEBF0FBECDBF789483B77A
:102A1000836083BF83B7886483BF89B7816089BFC0
:102A200092E09EBD8EB581608EBD8FB581608FBDF9
:102A300085B5846085BD85B5806485BD87E886B928
:102A40001AB8E0916802F09169029083E091640203
:102A5000F09165021082E0916602F091670280E1D8
:102A6000808310927002E0916C02F0916D0286E812
:102A70008083E0916A02F0916B0280818869808393
:102A8000E0916A02F0916B0280818F7D80831092C9
:102A9000700061E081E00E94260161E085E00E9413
:102AA000260161E080E00E94260161E087E00E944B
:102AB000260161E084E00E94260161E086E00E9438
:102AC000260161E089E10E94260161E082E00E9426
:102AD000260161E083E00E94260161E088E10E9416
:102AE000260161E08FE10E94260161E08EE10E94F3
:102AF000260161E080E10E94260161E08FE00E94F2
:102B0000260161E08CE10E94260160E08AE10E94DA
:102B1000260160E08BE10E94260160E082E10E94D4
:102B2000260160E08AE00E94260160E08DE10E94BB
:102B3000260160E08BE00E94260160E081E10E94B6
:102B4000260160E083E10E94260160E084E10E94AA
:102B5000260160E086E10E94260160E085E10E9496
:102B6000260188EA9FE0909372008093710085B7F8
:102B70008C7F816085BF8BB780648BBF809123037E
:102B80008C3008F04EC061E08FE10E9426018091F8
:102B90002303282F30E0F901EE0FFF1FE20FF31F90
:102BA000EB50FD4F9081907C9F61908310922403A5
:102BB000109225032CE0622F0E944A23829FB001CD
:102BC000112430E020E0AB01420F531FFA01EE0F59
:102BD000FF1FE40FF51FEB50FD4F908196FD13C0D2
:102BE0002F5F3F4F2C30310571F781110CC01FBC96
:102BF0008EB582608EBD1DBC1CBC88B7806188BF4D
:102C000089B7806189BFE09123038E2F90E0FC019A
:102C1000EE0FFF1FE80FF91FEB50FD4F808180641E
:102C200080831FBC1EBC8EB5836C8EBD89B781624C
:102C300089BF61E081E00E94F80061E080E00E94CD
:102C4000F80061E084E00E94F80061E085E00E9405
:102C5000F80061E087E00E94F80068EE73E080E031
:102C600090E00E946D0360E081E00E94F80060E067
:102C700080E00E94F80060E084E00E94F80060E0DC
:102C800085E00E94F80060E087E00E94F8008EED89
:102C900090E00E94B00601E044244A9483E0582E5C
:102CA000612C712C11E09BEA292E93E0392E809142
:102CB0008000882311F190E080E00E946C21823036
:102CC00009F04CC081E090E00E946C2180937E006E
:102CD00082E090E00E946C2180937F0065E070E0CC
:102CE00080E090E00E946D038091220390E00E94BA
:102CF0006C2180937D001092800088E592E00E9414
:102D00006004892B09F4A5C06EE970E0CE0101963C
:102D10000E94C6100E94200497FD5EC08A30910573
:102D200009F45AC08F831886ED80FE802FEFE21AD7
:102D3000F20AB701CE0101960E947310882351F365
:102D400029813A818D819E81BE01695F7F4F820F0B
:102D5000931F0E945725FE82ED82DCCF68E870E069
:102D600090E080E00E945E1165E070E080E090E01D
:102D70000E946D036EE770E081E090E00E945E11BA
:102D800065E070E080E090E00E946D038091220396
:102D900090E09A83898360917D00CE0101960E9424
:102DA000451165E070E080E090E00E946D03809145
:102DB000210361E472E090E00E945E1165E070E042
:102DC00080E090E00E946D03809120036BE770E04B
:102DD00090E00E945E118FCF80911A0390911B03A7
:102DE000009709F400C569817A816115710509F4BC
:102DF000F8C440911C0350911D032D813E81421760
:102E0000530708F4EEC40E9457258D819E8190934C
:102E10001F0380931E031E821D82CE0101960E9415
:102E2000601061E070E080E090E00E946D034091EE
:102E30001E0350911F0360911A0370911B0388E5D4
:102E400092E00E94D00361E070E080E090E00E9498
:102E50006D038091400281112FC00E9414036B0109
:102E60007C010E949F038090FA019090FB01A0904A
:102E7000FC01B090FD01681979098A099B09683E37
:102E8000734081059105C0F0C701B6010E9401237E
:102E90004B010E949F036093FA017093FB018093A2
:102EA000FC019093FD0185E08816910408F0B2C4FE
:102EB00088E191E00E94A90582E10E94CF0001977C
:102EC00009F0DFC461E081E00E94F80010933F0246
:102ED00080913E02811106C010933E028AEE90E07E
:102EE0000E94450C8AE10E94CF00019709F0E0C4DE
:102EF00080917E0090917F00181619064CF081E0B9
:102F000090E00E946C2190E090937F0080937E007F
:102F100010923D0210923C0210923B0210923A0233
:102F2000109339021093380210933702109336022F
:102F30008091350281110EC01093350282EF90E02E
:102F40000E94450C85E090E00E94D90286EF90E057
:102F50000E94450C8BE10E94CF00019709F0F3C459
:102F600080917E0090917F00181619064CF081E048
:102F700090E00E946C2190E090937F0080937E000F
:102F800080913802882309F4B1C4809137028823E4
:102F900009F4ACC41092380210923D0210923C0227
:102FA00010923B021093390210933A020E949F0341
:102FB000C0902F02D0903002E0903102F0903202A7
:102FC0006C197D098E099F09683E73408105910542
:102FD00068F10E949F0360932F02709330028093E8
:102FE00031029093320240912B0250912C02609159
:102FF0002D0270912E02809126024230510561050A
:10300000710508F0BEC41092270210922802109297
:10301000290210922A02882349F0109226028EEF8C
:1030200090E00E94450C80E00E94950587E091E0C9
:103030000E941810882371F061E081E00E94F8007E
:103040006EE970E08AE193E00E949B108AEE90E0C6
:103050000E94450C8BE091E00E9418108823A9F093
:1030600082E10E94CF00892B81F460E081E00E9420
:10307000F80010923F026EE970E08AE193E00E944E
:103080009B108EEE90E00E94450C8FE091E00E9434
:103090001810882371F08091260281118EC48EEF62
:1030A00090E00E94450C6EE970E08AE193E00E9496
:1030B0009B1083E191E00E9418108823D9F01093AF
:1030C00025026EE970E08AE193E00E949B1087E19F
:1030D00091E00E94450C80912502882309F48BC55C
:1030E000D090080281E0D81609F46AC492E0D9169B
:1030F00009F403C58BE191E00E941810882361F068
:10310000109225026EE970E08AE193E00E949B1024
:103110008FE191E00E94450C83E291E00E9418103B
:10312000882341F087E291E00E94450C61E088E14C
:103130000E94F8008BE291E00E941810882341F071
:103140008FE291E00E94450C60E088E10E94F80067
:1031500083E391E00E941810882321F061E08EE162
:103160000E94F80087E391E00E941810882321F064
:1031700060E08EE10E94F8008BE391E00E9418105D
:10318000811112C08FE391E00E94181081110CC0D0
:1031900083E491E00E941810811106C087E491E059
:1031A0000E941810882371F18091340281112AC085
:1031B00080913602811126C01092380210923D0291
:1031C00010923C021092390210923A0260E085E0BF
:1031D0000E94F80060E080E00E94F80060E087E074
:1031E0000E94F80060E084E00E94F8006EE970E060
:1031F0008AE193E00E949B1010923B0282EF90E0E4
:103200000E94450C8BE491E00E941810882381F005
:1032100086EF90E00E94450C10933902109338021B
:10322000109337026EE970E08AE193E00E949B10F0
:103230006FE471E0CE0101960E94C610CE010196A6
:103240000E943110F82ECE0101960E946010FF20DE
:1032500009F452C0CE0101960E94F71089819A812B
:10326000009709F4D1C40E94941E0E94FA226B01B7
:103270007093240260932302CE0101960E94601095
:1032800046018DE10E94CF00019719F081E00E9474
:103290009505892889F180910D0281112DC061E089
:1032A00080E10E94F8000E949F03809009029090A4
:1032B0000A02A0900B02B0900C02681979098A09E1
:1032C0009B09F12CE12CC616D706E806F906A0F4F6
:1032D00060E080E10E94F80010930D021092090254
:1032E00010920A0210920B0210920C026EE970E02A
:1032F0008AE193E00E949B1064E571E0CE010196A3
:103300000E94C610CE0101960E943110F82ECE0107
:1033100001960E946010FF20F9F0CE0101960E94F4
:10332000F710CE0101960E94681070937F006093A1
:103330007E00CE0101960E94601060917E00709127
:103340007F001616170644F481E090E09A83898383
:10335000CE0101960E94451169E571E0CE0101960A
:103360000E94C610CE0101960E943110F82ECE01A7
:1033700001960E946010FF2009F1CE0101960E9483
:10338000F710CE0101960E94681060937D00CE0177
:1033900001960E94601060917D00662379F0809113
:1033A000220390E09A838983CE0101960E94451101
:1033B00065E070E080E090E00E946D036EE571E0F2
:1033C000CE0101960E94C610CE0101960E943110D6
:1033D000F82ECE0101960E946010FF2009F1CE0167
:1033E00001960E94F710CE0101960E94681070931A
:1033F000420260934102CE0101960E9460106091EA
:1034000041028091210390E09A838983CE01019645
:103410000E94451165E070E080E090E00E946D033D
:1034200063E671E0CE0101960E94C610CE010196BE
:103430000E943110F82ECE0101960E946010FF20EC
:1034400031F1CE0101960E94F710CE0101960E9443
:10345000681070937C0060937B00CE0101960E94FF
:10346000601060917B0070917C006115710579F0AE
:103470008091200390E09A838983CE0101960E9477
:10348000451165E070E080E090E00E946D0368E621
:1034900071E0CE0101960E94C610CE0101960E94F5
:1034A0003110F82ECE0101960E946010FF20A1F08D
:1034B000CE0101960E94F710CE0101960E9468107D
:1034C00060932202CE0101960E9460106EE970E0C6
:1034D0008AE193E00E949B106DE671E0CE010196B7
:1034E0000E94C610CE0101960E943110F82ECE0126
:1034F00001960E946010FF20E1F1CE0101960E942A
:10350000F710CE0101960E9468104B0170932102C2
:1035100060932002CE0101960E9460102FEF821668
:1035200092060CF110931F0218141904E4F4C4015C
:10353000990CAA0BBB0B8093770090937800A09313
:103540007900B0937A006EE970E08AE193E00E941E
:103550009B100E949F0360931B0270931C02809338
:103560001D0290931E0282E791E00E94450C0E948A
:103570000D0586E791E00E941810882371F01092E3
:103580001F026EE970E08AE193E00E949B1086E7DB
:1035900091E00E94450C0E940D058AE791E00E948F
:1035A0001810882371F06EE970E08AE193E00E94C0
:1035B0009B108EE791E00E94450C0E9414030E942C
:1035C000DE0E83E891E00E941810882339F16EE93D
:1035D00070E08AE193E00E949B1087E891E00E94EE
:1035E000450C8091700020E4829FC0011124876007
:1035F00087B9369A3699FECFA4B1B5B124E630E04A
:103600000E945623A30192010E948121B901330F28
:10361000880B990B0E944C200E94DE0E8CE891E0F2
:103620000E941810882309F446C06EE970E08AE110
:1036300093E00E949B1080E991E00E94B006809187
:10364000700020E4829FC0011124856087B9369AFA
:103650003699FECF64B175B1072E000C880B990B1B
:103660000E944C2020E030E040EA50E40E94AB2071
:1036700020E030E040E85AE30E94AB2020E030E058
:103680004AE754E40E94882220E030EE4BE256E400
:103690000E9488226B017C012DEC3CEC4CEC5DE33C
:1036A0000E94452087FF03C0C12CD12C7601C701A1
:1036B000B6010E94DE0E85E991E00E941810882371
:1036C00081F01093390210933C0210933D026EE991
:1036D00070E08AE193E00E949B108AEF90E00E94E4
:1036E000450C89E991E00E941810882371F010932D
:1036F000390210933A026EE970E08AE193E00E9489
:103700009B108DE991E00E94450C81EA91E00E94B6
:103710001810882341F01093390210933B0281EA7C
:1037200091E00E94450C0E94BE060E94500C8091C0
:103730002602882309F46CC285E10E94CF0001971C
:1037400081F461E08EE10E94F80010931A020E9459
:103750009F03609316027093170280931802909350
:10376000190285E10E94CF00892B51F580911A0240
:10377000882331F10E949F03C0901602D090170257
:10378000E0901802F09019026C197D098E099F09CA
:10379000603177428105910598F00E949F03609304
:1037A000160270931702809318029093190280E01A
:1037B0000E94950560E08EE10E94F80010921A02C6
:1037C0000E940B0A0E940D0580E090E0892B09F40D
:1037D0006ECA0E946C04882309F469CA0E94000022
:1037E00066CA0E94FF2389819A8190931B0380936C
:1037F0001A038B819C8190931D0380931C038D8100
:103800009E8190931F0380931E031A8219821C824B
:103810001B8201CBC4010597059718F48AEF90E04D
:1038200049CBC4010A97059718F486EE90E042CB85
:10383000C4010F97059718F488EC90E03BCBC401C6
:103840004497059718F484EB90E034CBC401499772
:10385000059718F48AEA90E02DCBC4014E9705979E
:1038600018F480EA90E026CB93E28916910409F4DB
:1038700023CB80917D0090E00E94A9051093400227
:103880001BCB80913F02882309F42CCB10923F027E
:1038900060E081E00E94F80080913E02882309F4F4
:1038A00021CB8EEE90E00E94450C10923E021ACB86
:1038B00080913602882309F44DCB1092350260E0E6
:1038C00085E00E94F80060E080E00E94F80010921D
:1038D0003902109238021092370210923A02109276
:1038E000360210923B0282EF90E032CB10923A0205
:1038F00060E085E00E94F80060E080E00E94F8004F
:103900006EE970E08AE193E00E949B1010923B0206
:103910001093390210933C0210933D02109334022D
:1039200080913302811142CB1093330282EF90E0F9
:103930000E94450C85E090E00E94D9028AEF90E059
:103940000E94450C33CB80913402882309F42ECB9E
:103950001092330260E087E00E94F80060E084E0AB
:103960000E94F8001092390210923C0210923D021F
:1039700010923A021092340210923B0282EF90E0D1
:10398000DFCF811153CB1093260288E091E00E9493
:10399000B00682E091E00E94450C60912702709190
:1039A00028028091290290912A024AE00E946C0626
:1039B0008CE990E00E945F0639CB88E091E071CB02
:1039C000F090070225E02F15F0F180916F00882319
:1039D000D1F10E949F038090030290900402A09076
:1039E0000502B0900602681979098A099B096233B9
:1039F00071058105910508F47DCB60E082E00E94AD
:103A0000F8000E949F036093030270930402809366
:103A1000050290930602E0900202ED24E092020279
:103A20006E2D83E00E94F800EE2009F463CB81E064
:103A30008F0D80930702853008F45CCB10926F00E5
:103A40001093010257CBE090000285E08E1508F438
:103A500051CB80910102882309F44CCB0E949F0333
:103A60008090030290900402A0900502B09006029C
:103A7000681979098A099B096233710581059105E5
:103A800008F438CB60E083E00E94F8000E949F03B6
:103A900060930302709304028093050290930602E0
:103AA000D090FF01D026D092FF016D2D82E00E94C0
:103AB000F800DD2009F41ECB81E08E0D809300021A
:103AC00094E09F1508F016CB853008F413CB1092C4
:103AD00007021092000210936F0010920102809171
:103AE000FE018F5F853018F48093FE0103CB1092A6
:103AF000FE0182E080930802FDCAF090070225E0F3
:103B00002F1550F180916F00882331F10E949F039F
:103B10008090030290900402A0900502B0900602EB
:103B2000681979098A099B09623371058105910534
:103B300008F4E0CA60E082E00E94F8000E949F035F
:103B4000609303027093040280930502909306022F
:103B5000E0900202E02662CFE090000285E08E1540
:103B600008F4C8CA80910102882309F4C3CA0E94DC
:103B70009F038090030290900402A0900502B090F1
:103B80000602681979098A099B0962337105810562
:103B9000910508F4AFCA60E083E00E94F80060E09D
:103BA00082E00E94F8000E949F03609303027093DA
:103BB0000402809305029093060281E08E0D8093AB
:103BC000000294E09F1508F095CA853008F492CA67
:103BD000109207021092000210936F0010920102DF
:103BE0008091FE018F5F8A3008F47ECF1092FE0133
:103BF000109308027FCA60E083E00E94F80060E052
:103C000082E00E94F80076CA60E070E0CB012DCB24
:103C100083E10E94CF00019709F061C080911502F5
:103C200081110CC010931502809114028F5F809354
:103C300014028130E9F1823009F441C084E10E942C
:103C4000CF00019709F054C080910F02811118C074
:103C500010930F02109214028CE10E94AD03109297
:103C6000100210921202109211028BB78F778BBF45
:103C7000309274002092730060E08EE10E94F800A0
:103C800086E10E94CF000197D9F580910E02811143
:103C900037C010930E028DE10E94CF00019719F0FA
:103CA00081E00E94950561E080E10E94F80059CD15
:103CB00010921302809312020E94120CBFCF85EA69
:103CC00091E00E94450C109211028CE10E94AD031C
:103CD000109210021093130210921402AFCF83E1DE
:103CE0000E94CF00892B09F0A9CF10921502A6CF10
:103CF00084E10E94CF00892B19F610920F02C0CFE9
:103D000086E10E94CF00892B09F02BCD10920E0284
:103D100060E080E10E94F80080E00E94950521CDDE
:103D20008AE193E00C946010662777270C94D41EE8
:103D30001F93FC0199278827BC01E8941191103248
:103D4000E9F3193010F01E30C8F31B3251F01D3268
:103D500049F4689406C00E94BF1E610F711D811D49
:103D6000911D119110531A30B0F33EF49095809547
:103D7000709561957F4F8F4F9F4F1F910895592FD9
:103D8000482F372F262F660F771F881F991F660F22
:103D9000771F881F991F620F731F841F951F660F5F
:103DA000771F881F991F0895B0E0A0E0EAEDFEE1BB
:103DB0000C94B9215C017B016115710519F0DB01DF
:103DC0008D939C9385010F5F1F4FF501D0818D2F3F
:103DD00090E00E9424206C01892BB9F5DD32B9F501
:103DE0000F5F1F4FD5011196DC91C1E05801F1E042
:103DF000AF1AB10843E050E06CE570E0C5010E94E5
:103E00002D20892B69F5680182E0C80ED11C45E0A0
:103E100050E067E570E0C6010E942D20892B21F457
:103E2000680197E0C90ED11CE114F10419F0D70123
:103E3000CD92DC9260E070E080E89FEFC111FFC09E
:103E400060E070E080E89FE7FAC05801BBCFDB324A
:103E500029F485010E5F1F4FF501D181C0E0C6CF67
:103E600043E050E064E570E0C5010E942D20892BFD
:103E7000E9F0F80110E000E020E030E0A9015F0186
:103E8000B0ED8B2E8D0E89E08815C8F19C2E6894BC
:103E900091F88C2F8870C2FF16C0811102C00F5F8D
:103EA0001F4F3196D501DC91C92DE9CFE114F10402
:103EB00029F00E5F1F4FF7011183008360E070E06F
:103EC00080EC9FE7BCC0882311F001501109A5E0E8
:103ED000B0E00E94A0219B01AC01220F331F441FC0
:103EE000551F280D311D411D511D283999E93907EC
:103EF000490799E15907A8F2C6609C2ED2CFAEEFD0
:103F00008A1206C0C3FD3CC09C2E689493F8C9CFAA
:103F1000DF7DD534A9F580818D3239F4C061DF01B0
:103F20001296818162E070E006C0DF018B32C1F33E
:103F3000119661E070E080535D01A61AB70A8A30DD
:103F4000F8F4E0E8CE16ECE0DE065CF4B601660FAD
:103F5000771F660F771FC60ED71ECC0CDD1CC80E50
:103F6000D11C5D01FFEFAF1ABF0A8C9180538A30DC
:103F7000A8F1C4FF03C0D194C194D1080C0D1D1D3C
:103F8000C1FF09C0E114F10431F081E0A81AB108C1
:103F9000D701AD92BC92CA01B9010E944A20C370F8
:103FA000C33009F490584B015C0120E030E0A901D6
:103FB0000E944520882309F440C0CBE8D0E017FFD9
:103FC00005C0119501951109C3E7D0E06E01B8E174
:103FD000CB1AD10880E2E82EF12C0FC0D501B1CF69
:103FE000FE0125913591459154910E191F09C50186
:103FF000B4010E94AB204B015C01D501C4010E1538
:104000001F0574F72497F594E794CC16DD06A9F7FD
:104010008A2F880F8B2F881F8F3F49F020E030E0D8
:10402000A901C501B4010E944520811106C082E2A8
:1040300090E090932A0380932903C501B401CDB782
:10404000DEB7ECE00C94D52191110C94182180324C
:1040500019F089508550C8F70895FB01DC014150E3
:10406000504088F08D9181341CF08B350CF4805ECB
:10407000659161341CF06B350CF4605E861B611138
:1040800071F3990B0895881BFCCF0E94872008F4D8
:1040900081E00895E89409C097FB3EF490958095DF
:1040A000709561957F4F8F4F9F4F9923A9F0F92FFE
:1040B00096E9BB279395F695879577956795B7957C
:1040C000F111F8CFFAF4BB0F11F460FF1BC06F5F62
:1040D0007F4F8F4F9F4F16C0882311F096E911C074
:1040E000772321F09EE8872F762F05C0662371F095
:1040F00096E8862F70E060E02AF09A95660F771FA9
:10410000881FDAF7880F9695879597F90895990F84
:104110000008550FAA0BE0E8FEEF16161706E80791
:10412000F907C0F012161306E407F50798F0621BB2
:10413000730B840B950B39F40A2661F0232B242B87
:10414000252B21F408950A2609F4A140A6958FEFA6
:10415000811D811D08950E94BE200C9432210E9471
:10416000242138F00E942B2120F0952311F00C948B
:104170001B210C94212111240C9466210E944321BF
:1041800070F3959FC1F3950F50E0551F629FF001AA
:10419000729FBB27F00DB11D639FAA27F00DB11DC3
:1041A000AA1F649F6627B00DA11D661F829F22274C
:1041B000B00DA11D621F739FB00DA11D621F839FD3
:1041C000A00D611D221F749F3327A00D611D231FA9
:1041D000849F600D211D822F762F6A2F11249F57F7
:1041E00050409AF0F1F088234AF0EE0FFF1FBB1FFA
:1041F000661F771F881F91505040A9F79E3F5105B9
:1042000080F00C941B210C9466215F3FE4F3983EF0
:10421000D4F3869577956795B795F795E7959F5F62
:10422000C1F7FE2B880F911D9695879597F90895F4
:1042300099278827089597F99F6780E870E060E0E4
:1042400008959FEF80EC089500240A94161617062F
:1042500018060906089500240A9412161306140677
:1042600005060895092E0394000C11F4882352F0DA
:10427000BB0F40F4BF2B11F460FF04C06F5F7F4F92
:104280008F4F9F4F089557FD9058440F551F59F079
:104290005F3F71F04795880F97FB991F61F09F3F33
:1042A00079F087950895121613061406551FF2CF5C
:1042B0004695F1DF08C0161617061806991FF1CFAC
:1042C00086957105610508940895E894BB276627D3
:1042D0007727CB0197F90895E199FECF9FBB8EBB5D
:1042E000E09A99278DB30895262FE199FECF9FBBC1
:1042F0008EBB2DBB0FB6F894E29AE19A0FBE0196E1
:104300000895052E97FB1EF400940E94982157FDF6
:1043100007D00E94EA2107FC03D04EF40C949821A8
:1043200050954095309521953F4F4F4F5F4F0895E1
:1043300090958095709561957F4F8F4F9F4F089511
:104340000E940C22A59F900DB49F900DA49F800DFC
:10435000911D11240895B7FF0C94A0210E94A02163
:10436000821B930B08952F923F924F925F926F9210
:104370007F928F929F92AF92BF92CF92DF92EF92F5
:10438000FF920F931F93CF93DF93CDB7DEB7CA1B76
:10439000DB0B0FB6F894DEBF0FBECDBF09942A88A1
:1043A000398848885F846E847D848C849B84AA8449
:1043B000B984C884DF80EE80FD800C811B81AA81D6
:1043C000B981CE0FD11D0FB6F894DEBF0FBECDBFA1
:1043D000ED010895A1E21A2EAA1BBB1BFD010DC021
:1043E000AA1FBB1FEE1FFF1FA217B307E407F507A5
:1043F00020F0A21BB30BE40BF50B661F771F881F81
:10440000991F1A9469F760957095809590959B0116
:10441000AC01BD01CF010895A29FB001B39FC001BF
:10442000A39F700D811D1124911DB29F700D811DE0
:104430001124911D08955058BB27AA270E943322AA
:104440000C9432210E94242138F00E942B2120F06C
:1044500039F49F3F19F426F40C9421210EF4E095D1
:10446000E7FB0C941B21E92F0E94432158F3BA1754
:10447000620773078407950720F079F4A6F50C947A
:1044800065210EF4E0950B2EBA2FA02D0B01B9017A
:1044900090010C01CA01A0011124FF27591B99F0BA
:1044A000593F50F4503E68F11A16F040A22F232FC6
:1044B000342F4427585FF3CF469537952795A79516
:1044C000F0405395C9F77EF41F16BA0B620B730BBD
:1044D000840BBAF09150A1F0FF0FBB1F661F771F2E
:1044E000881FC2F70EC0BA0F621F731F841F48F4E3
:1044F000879577956795B795F7959E3F08F0B0CF6C
:104500009395880F08F09927EE0F97958795089552
:104510000E949C220C9432210E942B2158F00E9470
:10452000242140F029F45F3F29F00C941B21511104
:104530000C9466210C9421210E94432168F3992355
:10454000B1F3552391F3951B550BBB27AA2762178F
:104550007307840738F09F5F5F4F220F331F441F9C
:10456000AA1FA9F335D00E2E3AF0E0E832D09150D0
:104570005040E695001CCAF72BD0FE2F29D0660FBD
:10458000771F881FBB1F261737074807AB07B0E800
:1045900009F0BB0B802DBF01FF2793585F4F3AF006
:1045A0009E3F510578F00C941B210C9466215F3FCF
:1045B000E4F3983ED4F3869577956795B795F7958C
:1045C0009F5FC9F7880F911D9695879597F9089574
:1045D000E1E0660F771F881FBB1F62177307840710
:1045E000BA0720F0621B730B840BBA0BEE1F88F71F
:1045F000E09508950E9401236894B1110C946621FE
:1046000008950E944B2188F09F5798F0B92F992761
:10461000B751B0F0E1F0660F771F881F991F1AF0AD
:10462000BA95C9F714C0B13091F00E946521B1E08C
:1046300008950C946521672F782F8827B85F39F08B
:10464000B93FCCF3869577956795B395D9F73EF446
:1046500090958095709561957F4F8F4F9F4F0895EE
:104660000E94872008F48FEF08950E948720880B0E
:10467000990B0895DB018F939F930E94A021BF9116
:10468000AF91A29F800D911DA39F900DB29F900DA1
:1046900011240895991B79E004C0991F961708F01A
:1046A000961B881F7A95C9F7809508950E940C2261
:1046B000B7FF0895821B930B0895EE0FFF1F05901F
:1046C000F491E02D09940F931F93CF93DF938230E1
:1046D000910510F482E090E0E0912D03F0912E031B
:1046E00030E020E0B0E0A0E0309799F421153105EA
:1046F00009F44AC0281B390B24303105D8F58A81CA
:104700009B816115710589F1FB0193838283FE0111
:1047100011C0408151810281138148175907E0F08F
:104720004817590799F4109761F012960C93129755
:1047300013961C933296CF01DF91CF911F910F9169
:10474000089500932D0310932E03F4CF2115310506
:1047500051F04217530738F0A901DB019A01BD015E
:10476000DF01F801C1CFEF01F9CF90932E038093C1
:104770002D03CDCFFE01E20FF31F819391932250C1
:10478000310939832883D7CF20912B0330912C0313
:10479000232B41F4209184003091850030932C0329
:1047A00020932B0320918200309183002115310545
:1047B00041F42DB73EB74091860050918700241BED
:1047C000350BE0912B03F0912C03E217F307A0F4D3
:1047D0002E1B3F0B2817390778F0AC014E5F5F4F57
:1047E0002417350748F04E0F5F1F50932C0340935A
:1047F0002B03819391939FCFF0E0E0E09CCFCF9388
:10480000DF930097E9F0FC01329713821282A091A6
:104810002D03B0912E03ED0130E020E01097A1F4BC
:1048200020813181820F931F20912B0330912C0323
:104830002817390709F061C0F0932C03E0932B038C
:10484000DF91CF910895EA01CE17DF07E8F54A819D
:104850005B819E0141155105B1F7E901FB83EA83B4
:1048600049915991C40FD51FEC17FD0761F4808160
:1048700091810296840F951FE90199838883828133
:1048800093819B838A83F0E0E0E012968D919C9166
:1048900013970097B9F52D913C911197CD01029690
:1048A000820F931F20912B0330912C032817390777
:1048B00039F6309751F510922E0310922D03B093D4
:1048C0002C03A0932B03BCCFD383C283408151819F
:1048D000840F951FC817D90761F44E5F5F4F888119
:1048E0009981480F591F518340838A819B8193830B
:1048F00082832115310509F0B0CFF0932E03E093A8
:104900002D039ECFFD01DC01C0CF13821282D7CFD1
:10491000B0E0A0E0EEE8F4E20C94B5218C01009741
:1049200051F4CB010E9463238C01C801CDB7DEB7DF
:10493000E0E10C94D121FC01E60FF71F9C0122500D
:104940003109E217F30708F49DC0D901CD91DC913C
:104950001197C617D70798F0C530D10530F3CE01AF
:1049600004978617970708F3C61BD70B2297C193A6
:10497000D1936D937C93CF010E94FF23D6CF5B012F
:10498000AC1ABD0A4C018C0E9D1EA0912D03B09156
:104990002E03512C412CF12CE12C109731F58091F4
:1049A0002B0390912C038815990509F05CC04616DD
:1049B000570608F058C080918200909183000097BC
:1049C00041F48DB79EB74091860050918700841BBB
:1049D000950BE817F90708F055C0F0932C03E09306
:1049E0002B03F90171836083A0CF8D919C91119766
:1049F00012966C90129713967C901397A815B90590
:104A000059F56C0142E0C40ED11CCA14DB0420F13C
:104A1000AC014A195B09DA011296159780F062829F
:104A2000738251834083D9016D937C93E114F10427
:104A300071F0D7011396FC93EE93129776CF2296DE
:104A40008C0F9D1FF90191838083F301EFCFF093C9
:104A50002E03E0932D0369CF4816590608F42C0164
:104A60007D01D3019ACFCB010E9463237C01009783
:104A700049F0AE01B8010E944525C8010E94FF23FC
:104A8000870153CF10E000E050CFFB01DC0102C0F2
:104A900001900D9241505040D8F70895FB01DC0180
:104AA0008D91019080190110D9F3990B0895FB01A4
:104AB000DC0101900D920020E1F70895FB01DC017B
:104AC0004150504030F08D910190801919F4002030
:104AD000B9F7881B990B089510E0C8E8D0E004C02E
:104AE000FE010E945D232196C938D107C9F7F894C9
:024AF000FFCFF6
:104AF200010101010163020003BC02000301010183
:104B020001AB030000000032000000680196FA00C9
:104B120001FF00002F038000020000000000A1043A
:104B2200D003FD03ED0460040C0452040D0A00726C
:104B32006D696C6C697300574F57000A206361738B
:104B42006532200A000A206361736533200A000A75
:104B5200206361736534200A006E616E00696E66BF
:104B6200006F7666007072657373696E6700496DD7
:104B720020416C6976655E5F5E004F4E48004F468D
:104B82004800414246004C4F4E00524F4E004F46A5
:104B9200460052504D3A00484F4E00484F4600459D
:104BA200535400504C4F00504F4E00504C46005052
:104BB2004F460053534D0041535500535355004146
:104BC200534D00454F4600414553004C424300526D
:104BD2004243004D424300424443004C424F004195
:104BE20053453A005342493A004944523A00534C21
:104BF200413A005348413A0048524E3A0048424F27
:104C02003A0048424F004842460045544D00544D38
:104C1200503A0046554C0046754C3A004241540009
:104C22005642543A0052424F004D424F0041424FC9
:0A4C32000042444F004E4F500000B6
:00000001FF
